:1000000001308A005B290000CA3AEC346F10C33219
:10001000F3307210CA34ED32EE327A10C237EC345B
:100020006F100000D634633A6F39A0266137F5327D
:100030006C10D330EE31E8327A10D330EE31E83242
:100040007A10000126308400831300080319352834
:100050000230F800F701F70B2B28F80B2A2897300D
:10006000F700F70B3128800B282808002C0EF039F8
:10007000F7000F30080577048800000008144028B6
:100080004128081008000808F700080E0F39F8008A
:1000900008008316081088100811831288100F308A
:1000A00083160805F038880083120815000008142C
:1000B000000043207808AC000810000008146028F5
:1000C00043207808AB0008100F308316080588001D
:1000D00083122C0EF700F030F70577082B04F80098
:1000E0007808AB00AB1B4F28291C881029188814EE
:1000F00000000811000008102A0EAB000F30AB05FD
:100100002B08AC0036202A080F39AB00AC00362093
:1001100008002830A2000C30A3000130A4000630F3
:10012000A5000810881008110F30831608058800F4
:100130000810881008110F308312A6002220013009
:10014000A1002108033C031CAD280330AC0036207D
:100150000530A6002220A10AA1280230AC003620DA
:100160000530A6002220A1012108033C031CC4285D
:1001700022302107840083130008A600A901260865
:10018000AA004920A10AB4288A110A127329260B51
:10019000CA28CD284030A700CE28A701013025026B
:1001A000A70727088038A800A9012808AA00492025
:1001B00008002408073A0319E7280B3A0319EC282A
:1001C000063A0319F428023A0319FA28FF280130E5
:1001D000A500A600C7200429A9010130AA004920D2
:1001E0000230A600222004290130A5000230A6001A
:1001F000C7200429A9011030AA0049200429013090
:10020000A9002408AA00492008000B08A1008B13AC
:10021000831603178C170C140000000083120313BD
:10022000A11B8B1703170C087F39031959290313D6
:10023000A10003170D080313A20003170F080313EF
:10024000A3002108A400D920220803178D0003135E
:10025000230803178F0003130B08A4008B138316C6
:1002600003178C170C140000000083120313A41B47
:100270008B1703170C0D0E0D7F3903195929031322
:10028000A10003170D080313A20003170F0803139F
:10029000A3002108A400D920220803178D0003130E
:1002A000230803178F008D0A03198F0A03130529EA
:1002B00003170313080003081F39830071308316E6
:1002C0008F000F0803170908C039890003131F1294
:1002D0009F1200300317880083128701880189016B
:1002E0008313031389285030A0002008103C031802
:1002F0008A292008A5000130A600C7200430031772
:100300008D0000308F00031305217830A6002220D5
:10031000A00375292F30A400D9206630A400D9206D
:100320005030A0002008103C0318A7292008A50081
:100330000130A600C720123003178D0000308F0057
:10034000031305217830A6002220A00392292F3024
:0E035000A400D9206630A400D92073296300D0
:04400E00A42CFF3FA0
:00000001FF
;PIC16F887
;CRC=B716  CREATED="25-Mar-20 19:31"
